:04000000FEEF17F008
:1014E200C58AC5881200C58696EC0AF01200C5822C
:1014F20096EC0AF01200C58096EC0AF01200C58440
:1015020096EC0AF0120074EC0AF071EC0AF0C95081
:101512001200336E33C0C9FF96EC0AF012000101CB
:10152200013131313131313131009EA69BEF0AF068
:101532009DEF0AF096EF0AF09E961200336E9EA877
:10154200A5EF0AF0A7EF0AF0A0EF0AF033C0ADFF53
:10155200120094869488280EC66E310EC86EC79CFF
:10156200C78E9E96A1961200F19E93500F0B936E1A
:1015720093501E09936E8150E009816E1200366EFF
:10158200000E336E35506FEC0BF0010E336E365099
:101592006FEC0BF012003C6E7CEC0AF0D00E8AEC81
:1015A2000AF03C508AEC0AF03B508AEC0AF080ECDC
:1015B2000AF01200390E356E2F0E366E800E376E1F
:1015C20019EC0DF0C0EC0DF006EC0EF001EC10F091
:1015D2001200C08EC09AC088C096C090C082C094CB
:1015E200C292C19AC198C46AC36AC2800A0EC16E0D
:1015F2001200F7EC0EF0EAEC0AF0AAEC0AF0FDECAD
:101602000BF0B5EC0AF0FDEC0BF01BEC0BF01D6AD5
:1016120012004A0E356E2F0E366E800E376E19ECA2
:101622000DF04A0E356E2F0E366EC00E376E19EC67
:101632000DF01200949C948EAC84AC96AC98AC8A5B
:10164200AC9CAB88AB9CAB8EB89EB896B892B89067
:10165200810EAF6E9E989E9A1200346E7CEC0AF058
:10166200A00E8AEC0AF034508AEC0AF078EC0AF008
:10167200A10E8AEC0AF084EC0AF0356E80EC0AF0D6
:1016820035501200346E7CEC0AF0D00E8AEC0AF06F
:1016920034508AEC0AF078EC0AF0D10E8AEC0AF0A7
:1016A20084EC0AF0356E80EC0AF035501200366E8A
:1016B2007CEC0AF0A00E8AEC0AF036508AEC0AF0B2
:1016C20034508AEC0AF080EC0AF0210E356E760E68
:1016D200E82EFED7352EFCD700D01200346E33B080
:1016E20075EF0BF078EF0BF0828279EF0BF08292BC
:1016F20034C083FF82848294958E82808292828417
:10170200829483BE87EF0BF089EF0BF080EF0BF032
:101712008290959E1200396E39C035F0D8903536D8
:10172200D8903536C250C30B3510C26EC282C2B2D7
:101732009DEF0BF09FEF0BF098EF0BF0C350C4CF6F
:1017420035F0366A35C036F0356A3510376E3650A8
:10175200386E37C033F038C034F0120056696577FE
:101762005F4C6F670000000000436C6561725F4C64
:101772006F67000000005365745F54696D65000077
:10178200000000446F776E6C6F61645F4C6F67009E
:101792004E55004731004732004733004734004777
:1017A20035005245204343000A6A000E096E0C6A56
:1017B200000E0B6E09500A10D8A4E2EF0BF0E4EF12
:1017C2000BF0FCEF0BF04A0E356E2F0E366E800ECC
:1017D200376E19EC0DF05B0E356E2F0E366EC00EA5
:1017E200376E19EC0DF04A0E356E2F0E366EC00EA6
:1017F200376E19EC0DF01200000E43EC0BF03D6E4B
:101802003D5080093B6E000ECCEC0AF0120E3B6E8E
:10181200020ECCEC0AF0020E43EC0BF03D6E3D5092
:1018220012093B6E020ECCEC0AF0930E3B6E070ED1
:10183200CCEC0AF0000E43EC0BF03D6E3D507F0BFA
:101842003B6E000ECCEC0AF012000D4A0E2A990EE5
:101852000D1807E13A0E0E18D8A432EF0CF034EF4F
:101862000CF03FEF0CF00E6A000E0D6E1150C00F1F
:10187200356E5F0EC0EC0AF051EF0CF04C0E0D18F5
:1018820007E11D0E0E18D8A449EF0CF04BEF0CF037
:1018920051EF0CF01150C00F356E200EC0EC0AF063
:1018A200120068EF0CF034C0F6FF35C0F7FFF86A9B
:1018B200050EF76403D00800F55005D0F6CFE9FF16
:1018C200F7CFEAFFEF509FEC0AF0344A352A34C0D2
:1018D200F6FF35C0F7FFF86A050EF76403D008007B
:1018E200F55005D0F6CFE9FFF7CFEAFFEF50000938
:1018F200D8A47EEF0CF080EF0CF054EF0CF0120045
:101902005E0EF66E170EF76E000EF86E00EE60F0C9
:1019120010EE4CF00900F5CFEEFFE550E150FAE190
:10192200200EF66E150EF76E000EF86E00EE53F0F6
:1019320010EE0CF00900F5CFEEFFE550E150FAE1B0
:1019420000EEACF0110EEE6AE806FDE100EE01F0E9
:10195200320EEE6AE806FDE1000EF86E000132EF8B
:1019620014F035503610D8B4B9EF0CF0BBEF0CF0D0
:10197200DFEF0CF0010E376EC3EF0CF0D890353666
:101982003636372A36AEC8EF0CF0CAEF0CF0BFEF8E
:101992000CF03550335C36503458D8A0D3EF0CF0ED
:1019A200D5EF0CF0D9EF0CF03550335E3650345A87
:1019B200D89036323532372ECAEF0CF033C033F0BE
:1019C20034C034F01200000E3B6E000E3C6E000E6E
:1019D2003D6E000E3E6E33A0F1EF0CF0F3EF0CF013
:1019E200FBEF0CF037503B2638503C2239503D2259
:1019F2003A503E22D8903736383639363A36D89071
:101A020036323532343233323350341035103610E8
:101A1200D8A40EEF0DF010EF0DF0ECEF0CF03BC080
:101A220033F03CC034F03DC035F03EC036F0120019
:101A3200000E336E37506FEC0BF036EF0DF0010EE7
:101A4200336E35C0F6FF36C0F7FFF86A050EF7644D
:101A520003D00800F55005D0F6CFE9FFF7CFEAFF33
:101A6200EF506FEC0BF0354A362A35C0F6FF36C020
:101A7200F7FFF86A050EF76403D00800F55005D0A9
:101A8200F6CFE9FFF7CFEAFFEF500009D8A44CEFF9
:101A92000DF04EEF0DF020EF0DF01200336E3350CB
:101AA200D8A456EF0DF058EF0DF05CEF0DF0C8EC36
:101AB20010F086EF0DF03304D8A462EF0DF064EF5E
:101AC2000DF085EF0DF0C8EC10F0346E3428D8B468
:101AD2006DEF0DF06FEF0DF07BEF0DF05304D8A416
:101AE20075EF0DF077EF0DF07BEF0DF0536A345088
:101AF20086EF0DF03428D8A481EF0DF083EF0DF0BE
:101B020085EF0DF0010E536EFF0E1200386A000EC3
:101B1200376E35503610D8B491EF0DF093EF0DF0CB
:101B2200BBEF0DF0010E396E9BEF0DF0D8903536FC
:101B32003636392A36AEA0EF0DF0A2EF0DF097EF50
:101B42000DF0D890373638363550335C365034582D
:101B5200D8A0AEEF0DF0B0EF0DF0B5EF0DF03550AF
:101B6200335E3650345A3780D89036323532392E79
:101B7200A2EF0DF037C033F038C034F01200020E7D
:101B820043EC0BF0046E010E43EC0BF0056E000EFD
:101B920043EC0BF0066E04ACD1EF0DF0D3EF0DF079
:101BA200DEEF0DF004380F0B010B300F1E6E0450E8
:101BB2000F0B300F1F6EE7EF0DF004380F0B030B06
:101BC200300F1E6E04500F0B300F1F6E3A0E206E38
:101BD20005380F0B0F0B300F216E05500F0B300F16
:101BE200226E3A0E236E06380F0B0F0B300F246E47
:101BF20006500F0B300F256E266A1E0E356E366AA2
:101C0200C00E376E19EC0DF01200040E8CEC0BF0C6
:101C120033C04CF034C04DF04CC033F04DC034F002
:101C2200356A366A630E376E000E386E000E396EF4
:101C3200000E3A6EE4EC0CF033C03FF034C040F0DA
:101C420035C041F036C042F0FF0E436E030E446EC3
:101C5200000E456E000E466EA5EC0EF03FC04EF033
:101C620040C04FF04EC033F04FC034F0366A0A0E17
:101C7200356E87EC0DF03350300F306E4EC033F0BE
:101C82004FC034F0366A0A0E356EB2EC0CF03350A7
:101C9200300F316E326A300E356E366ACE0E376EC6
:101CA20019EC0DF01200386A000E376E71EF0EF06B
:101CB20034503724D96EDA6A33503724E16EE26A3F
:101CC200DE50E618D8B468EF0EF06AEF0EF06FEF50
:101CD2000EF0346A010E336EA4EF0EF0374A382A42
:101CE20033503724D96EDA6ADF50D8B47BEF0EF066
:101CF2007DEF0EF089EF0EF034503724D96EDA6A98
:101D0200DF50D8A487EF0EF089EF0EF059EF0EF0F6
:101D120033503724D96EDA6ADF50D8A493EF0EF02D
:101D220095EF0EF06AEF0EF034503724D96EDA6A6E
:101D3200DF50D8A49FEF0EF0A1EF0EF06AEF0EF085
:101D4200346A000E336E1200000E476E000E486EAB
:101D5200000E496E000E4A6E435044104510461064
:101D6200D8B4B6EF0EF0B8EF0EF0EEEF0EF0010EB3
:101D72004B6EC2EF0EF0D8904336443645364636A7
:101D82004B2A46AEC7EF0EF0C9EF0EF0BCEF0EF0D5
:101D9200D8904736483649364A3643503F5C44501D
:101DA20040584550415846504258D8A0DBEF0EF0FB
:101DB200DDEF0EF0E6EF0EF043503F5E4450405A26
:101DC2004550415A4650425A4780D8904632453291
:101DD200443243324B2EC9EF0EF047C03FF048C0A9
:101DE20040F049C041F04AC042F01200956A945056
:101DF200F80B946E8290C30E356ECD0EE82EFED790
:101E0200352EFCD70000000E336E330E6FEC0BF054
:101E12001B0E356E9E0EE82EFED7352EFCD700D057
:101E2200000E336E330E6FEC0BF0A60EE82EFED7CB
:101E320000D0000E336E330E6FEC0BF000D000D0EA
:101E42000000000E336E020E6FEC0BF0A60EE82EB1
:101E5200FED700D0000E336E380E6FEC0BF0A60EDC
:101E6200E82EFED700D0000E336E010E6FEC0BF0A1
:101E7200040E356E3E0EE82EFED7352EFCD7000E30
:101E8200336E0C0E6FEC0BF0A60EE82EFED700D0D0
:101E92001200386A34BE52EF0FF050EF0FF058EFD5
:101EA2000FF0336C341ED8B0342A010E386E36BEB1
:101EB2005FEF0FF05DEF0FF063EF0FF0356C361E42
:101EC200D8B0362A35503610D8B46AEF0FF06CEF1E
:101ED2000FF090EF0FF0010E376E74EF0FF0D89005
:101EE20035363636372A36AE79EF0FF07BEF0FF004
:101EF20070EF0FF03550335C36503458D8A084EF71
:101F02000FF086EF0FF08AEF0FF03550335E365048
:101F1200345AD89036323532372E7BEF0FF03850A4
:101F2200D8B496EF0FF098EF0FF09CEF0FF0336CF0
:101F3200341ED8B0342A33C033F034C034F0120027
:101F4200386A36BEA9EF0FF0A7EF0FF0AFEF0FF030
:101F5200356C361ED8B0362A010E386E34BEB6EF56
:101F62000FF0B4EF0FF0BCEF0FF0336C341ED8B0AB
:101F7200342A010E381A3A6A000E396E355036107C
:101F8200D8B4C6EF0FF0C8EF0FF0F0EF0FF0010E6C
:101F9200376ED0EF0FF0D89035363636372A36AE58
:101FA200D5EF0FF0D7EF0FF0CCEF0FF0D890393616
:101FB2003A363550335C36503458D8A0E3EF0FF040
:101FC200E5EF0FF0EAEF0FF03550335E3650345A3A
:101FD2003980D89036323532372ED7EF0FF038505D
:101FE200D8B4F6EF0FF0F8EF0FF0FCEF0FF0396C0A
:101FF2003A1ED8B03A2A39C033F03AC034F012004F
:102002003C6A1C04D8A408EF10F00AEF10F017EF96
:1020120010F0050E186010EF10F012EF10F047EFFD
:1020220010F0182A010E3C6E47EF10F0020E1C1839
:10203200D8A41EEF10F020EF10F02BEF10F0185084
:10204200D8B426EF10F028EF10F047EF10F0180682
:1020520013EF10F0030E1C18D8A432EF10F034EF77
:1020620010F03AEF10F0070E186E010E3C6E47EFBB
:1020720010F0040E1C18D8A441EF10F043EF10F03A
:1020820047EF10F0060E186E010E3C6E1850030D4D
:10209200F350940F3B6E3BC035F0366ACA0E376E72
:1020A20019EC0DF03C50D8B459EF10F05BEF10F082
:1020B20060EF10F0300E386E1850FBEC11F0120089
:1020C200010E4FEC0DF0376E3704D8B46BEF10F001
:1020D2006DEF10F078EF10F0020E3718D8B474EFED
:1020E20010F076EF10F078EF10F0C7EF10F012BE9C
:1020F20086EF10F0125007E1080E115CD8B084EFA1
:1021020010F086EF10F0C7EF10F03704D8A48CEF70
:1021120010F08EEF10F096EF10F01150270FD96EDD
:10212200DA6A300EDF6EA5EF10F0020E3718D8A46F
:102132009DEF10F09FEF10F0C7EF10F01150270F36
:10214200D96EDA6A310EDF6E1150C00F356E2A0E6B
:10215200C0EC0AF0114A122A12BEBBEF10F0125064
:1021620007E1080E115CD8B0B9EF10F0BBEF10F028
:10217200C7EF10F01150C00F356E5F0EC0EC0AF0C1
:102182001150C00F356E200EC0EC0AF01200819A79
:10219200818E818C81B2D0EF10F0D2EF10F0D5EFAA
:1021A20010F0010E4AEF11F081B4DAEF10F0DCEF1B
:1021B20010F0DFEF10F0040E4AEF11F081B6E4EFF9
:1021C20010F0E6EF10F0E9EF10F0070E4AEF11F011
:1021D20081B8EEEF10F0F0EF10F0F3EF10F00A0E0E
:1021E2004AEF11F0819C818E818A81B2FBEF10F05F
:1021F200FDEF10F000EF11F0020E4AEF11F081B482
:1022020005EF11F007EF11F00AEF11F0050E4AEF9A
:1022120011F081B60FEF11F011EF11F014EF11F080
:10222200080E4AEF11F081B819EF11F01BEF11F00F
:102232001EEF11F00B0E4AEF11F0819E818C818A04
:1022420081B226EF11F028EF11F02BEF11F0030EFF
:102252004AEF11F081B430EF11F032EF11F035EFA7
:1022620011F0060E4AEF11F081B63AEF11F03CEF91
:1022720011F03FEF11F0090E4AEF11F081B844EF6F
:1022820011F046EF11F049EF11F00C0E4AEF11F088
:10229200FF0E12004B6A0B500C10D8B453EF11F022
:1022A20055EF11F0EEEF11F0060E346E2F0E356E73
:1022B20052EC0CF0BEEF11F04B500A0DF3CF4CF084
:1022C2004B500B5C386E000E0C58396E090E3824D8
:1022D200336E000E3920346E366A0A0E356EB2EC59
:1022E2000CF03350300F3A6E200E3B6E4C502EECF9
:1022F2000BF03C6E4C2A4C502EEC0BF03D6E4C2AEF
:102302003A0E3E6E4C502EEC0BF03F6E4C2A4C5067
:102312002EEC0BF0406E4C2A3A0E416E4C502EECD5
:102322000BF0426E4C2A4C502EEC0BF0436E4C2AB2
:10233200200E446E4C502EEC0BF0456E4C2A4C5045
:102342002EEC0BF0466E4C2A200E476E4C502EECB3
:102352000BF0486E4C2A4C502EEC0BF0496E4C2A76
:102362004A6A3A0E346E356A52EC0CF0200E346E24
:102372002F0E356E52EC0CF04B2A4B50386E396AE8
:102382000B50385C0C503958D8B0CAEF11F0CCEF72
:1023920011F0D4EF11F0090E4B64D2EF11F0D4EF2B
:1023A20011F05DEF11F04A0E356E2F0E366E800E73
:1023B200376E19EC0DF07B0E356E2F0E366E800ED9
:1023C200376E19EC0DF04A0E356E2F0E366EC00EBA
:1023D200376E19EC0DF0FAEF11F0230E346E2F0E5A
:1023E200356E52EC0CF0F50E346E2F0E356E52EC4B
:1023F2000CF012003A6EC0EC0DF00BC033F00CC0C2
:1024020034F0366A0A0E356EB2EC0CF033500A0D17
:10241200F3CF15F01EC034F0155058EC0BF0152A0E
:10242200210E396E760EE82EFED7392EFCD700D05B
:102432001FC034F0155058EC0BF0152A210E396EDE
:10244200760EE82EFED7392EFCD700D021C034F00C
:10245200155058EC0BF0152A210E396E760EE82E27
:10246200FED7392EFCD700D022C034F0155058ECDC
:102472000BF0152A210E396E760EE82EFED7392E74
:10248200FCD700D024C034F0155058EC0BF0152ABC
:10249200210E396E760EE82EFED7392EFCD700D0EB
:1024A20025C034F0155058EC0BF0152A210E396E68
:1024B200760EE82EFED7392EFCD700D03A50030D07
:1024C200F350940FD96EDA6ADF50346E155058EC1F
:1024D2000BF0152A210E396E760EE82EFED7392E14
:1024E200FCD700D03A50030DF350950FD96EDA6A3B
:1024F200DF50346E155058EC0BF0152A210E396E50
:10250200760EE82EFED7392EFCD700D03850D96E81
:10251200DA6ADF50346E155058EC0BF0152A210E92
:10252200396E760EE82EFED7392EFCD700D0385001
:10253200D96EDA6A010ED926DF50346E155058EC86
:102542000BF0152A210E396E760EE82EFED7392EA3
:10255200FCD700D00B4A0C2A12001C04D8A4B4EFFA
:1025620012F0B6EF12F0CDEF12F01950D8A4BCEF72
:1025720012F0BEEF12F0C2EF12F0010E196EEAEF86
:1025820012F0020E1A60C8EF12F0CAEF12F0EAEF70
:1025920012F01A2AEAEF12F0020E1C18D8A4D4EF95
:1025A20012F0D6EF12F0EAEF12F01904D8A4DCEF21
:1025B20012F0DEEF12F0E1EF12F0196AEAEF12F018
:1025C2001A50D8B4E7EF12F0E9EF12F0EAEF12F086
:1025D2001A064A0E356E2F0E366E800E376E19ECC5
:1025E2000DF01A500D0DF350600F386E38C035F0F3
:1025F200366A820E376E19EC0DF04A0E356E2F0ECA
:10260200366EC00E376E19EC0DF01A500D0DF350E8
:102612006D0F386E38C035F0366AC20E376E19EC5F
:102622000DF01950D8A418EF13F01AEF13F02CEF95
:1026320013F0580E356E2F0E366E800E376E19EC73
:102642000DF0F80E356E2F0E366E800E376E19ECC9
:102652000DF03CEF13F0580E356E2F0E366EC00E95
:10266200376E19EC0DF0F80E356E2F0E366EC00E69
:10267200376E19EC0DF01A501924396E0B0E1C1816
:10268200D8A446EF13F048EF13F06DEF13F05AEFB2
:1026920013F0020E1D6E6DEF13F0050E1D6E6DEF41
:1026A20013F0030E1D6E6DEF13F0040E1D6E6DEF31
:1026B20013F03950000AD8B44AEF13F0010AD8B423
:1026C2004EEF13F0030AD8B452EF13F0010AD8B454
:1026D20056EF13F06DEF13F012000B500C10D8B43C
:1026E20075EF13F077EF13F020EF14F01C04D8A469
:1026F2007DEF13F07FEF13F08CEF13F00A5007E138
:10270200090E095CD8B088EF13F08AEF13F08CEF52
:1027120013F0094A0A2A020E1C18D8A493EF13F0E8
:1027220095EF13F0A1EF13F009500A10D8B49CEF03
:1027320013F09EEF13F0A1EF13F00906D8A00A06DA
:102742001C04D8B4A7EF13F0A9EF13F0B2EF13F003
:10275200020E1C18D8A4B0EF13F0B2EF13F030EF52
:1027620014F009500A0DF3CF49F009C033F00AC042
:1027720034F0366A0A0E356EB2EC0CF03350300F7C
:10278200386E200E396E49502EEC0BF03A6E492A03
:1027920049502EEC0BF03B6E492A3A0E3C6E4950E2
:1027A2002EEC0BF03D6E492A49502EEC0BF03E6E9A
:1027B200492A3A0E3F6E49502EEC0BF0406E492AE0
:1027C20049502EEC0BF0416E492A200E426E4950C0
:1027D2002EEC0BF0436E492A49502EEC0BF0446E5E
:1027E200492A200E456E49502EEC0BF0466E492ABE
:1027F20049502EEC0BF0476E492A486A4A0E356E54
:102802002F0E366E800E376E19EC0DF0C20E356E3D
:102812002F0E366E830E376E19EC0DF04A0E356EA2
:102822002F0E366EC00E376E19EC0DF0380E356E67
:10283200366AC00E376E19EC0DF030EF14F0ED0E63
:10284200356E2F0E366E800E376E19EC0DF04A0E75
:10285200356E2F0E366EC00E376E19EC0DF01C6AF7
:102862001200FAEC0AF0010E4FEC0DF01C6E0C0E89
:102872001C18D8A43FEF14F041EF14F046EF14F007
:10288200010E1D6E0AEC0BF01C6A0A0E1C18D8A46D
:102892004DEF14F04FEF14F05EEF15F01B50D8B46B
:1028A20055EF14F058EF14F0010E59EF14F0000E2A
:1028B2001B6E0AEC0BF01B50D8B462EF14F064EFFD
:1028C20014F070EF14F0060E1D6E6B0E356E2F0EA7
:1028D200366E800E376E19EC0DF079EF14F01D6A2A
:1028E200DA0E356E2F0E366E800E376E19EC0DF045
:1028F2001C685EEF15F0DBEC0AF034EF14F0555073
:10290200D8B486EF14F088EF14F098EF14F00AECC4
:102912000BF08A0E356E2F0E366E800E376E19EC66
:102922000DF0C00E356E5F0EC0EC0AF0556A12BE95
:10293200A6EF14F0125007E1080E115CD8B0A4EF14
:1029420014F0A6EF14F0ACEF14F026EC0CF061ECEE
:1029520010F034EF14F02F6A560E336E270E346ED9
:1029620054EC0EF033503410D8A4BAEF14F0BCEF8C
:1029720014F0C2EF14F00AEC0BF0010E1D6E34EFEE
:1029820014F00F4A102A4A0E356E2F0E366E800E44
:10299200376E19EC0DF0B50E356E2F0E366E800EB9
:1029A200376E19EC0DF0C00E356E0F503508C0ECC5
:1029B2000AF0A70E356E2F0E366EC10E376E19EC69
:1029C2000DF0050E0F181010D8A4EAEF14F0ECEF7A
:1029D20014F01AEF15F0270E526E0D0E516E260EE0
:1029E200E82EFED7512EFCD7522EFAD700D04A0E2F
:1029F200356E2F0E366E800E376E19EC0DF0990E75
:102A0200356E2F0E366E800E376E19EC0DF04A0EB3
:102A1200356E2F0E366EC00E376E19EC0DF0CE0EDF
:102A2200356E2F0E366EC00E376E19EC0DF018EFA4
:102A320015F0270E526E0D0E516E260EE82EFED7A1
:102A4200512EFCD7522EFAD700D0126A000E116E08
:102A52004A0E356E2F0E366E800E376E19EC0DF063
:102A62008A0E356E2F0E366E800E376E19EC0DF013
:102A72004A0E356E2F0E366EC00E376E19EC0DF003
:102A8200C00E356E5F0EC0EC0AF034EF14F0AEECFF
:102A920012F034EF14F06EEC13F034EF14F04BEC50
:102AA20011F034EF14F0D5EC0BF034EF14F00AEC23
:102AB2000BF089EC15F034EF14F01D50516E526A90
:102AC2005250000AD8B468EF15F034EF14F05150A8
:102AD200000AD8B47CEF14F0010AD8B448EF15F01C
:102AE200030AD8B44CEF15F0010AD8B458EF15F028
:102AF200070AD8B450EF15F0010AD8B454EF15F014
:102B0200030AD8B480EF14F034EF14F0FEEF17F09C
:102B12001350D8A48FEF15F091EF15F0BDEF15F01B
:102B2200020E43EC0BF04E6E010E43EC0BF04F6EB7
:102B3200000E43EC0BF0506E4EC03DF00F0E3D16F2
:102B42004E380F0B0A0DF3503D24016E4FC03DF07D
:102B52000F0E3D164F380F0B0A0DF3503D24026E37
:102B620050C03DF00F0E3D1650380F0B0A0DF350BA
:102B72003D24036E010E136E074A082AD10E075C2C
:102B8200070E0858D8A0C8EF15F0CAEF15F0D8EF15
:102B920015F05450D8B4D0EF15F0D3EF15F0010E64
:102BA200D4EF15F0000E546E086A000E076EE40EA4
:102BB200356E2F0E366E840E376E19EC0DF01450F2
:102BC200D8A4E6EF15F0E8EF15F0F6EF15F0545043
:102BD200D8A4EEEF15F0F0EF15F0F6EF15F0200E99
:102BE200456E200E466E0CEF16F001C033F0346ACB
:102BF200366A0A0E356EA1EC0FF03350300F456E77
:102C020001C033F0346A366A0A0E356E4AEC0FF0B0
:102C12003350300F466E3A0E476E1404D8A414EFA8
:102C220016F016EF16F024EF16F05450D8A41CEF4D
:102C320016F01EEF16F024EF16F0200E486E200E4E
:102C4200496E3AEF16F002C033F0346A366A0A0E61
:102C5200356EA1EC0FF03350300F486E02C033F0E6
:102C6200346A366A0A0E356E4AEC0FF03350300F72
:102C7200496E3A0E4A6E020E1418D8A443EF16F0AB
:102C820045EF16F053EF16F05450D8A44BEF16F060
:102C92004DEF16F053EF16F0200E4B6E200E4C6ED9
:102CA20069EF16F003C033F0346A366A0A0E356EE5
:102CB200A1EC0FF03350300F4B6E03C033F0346A87
:102CC200366A0A0E356E4AEC0FF03350300F4C6EF6
:102CD2004D6A450E356E366AC40E376E19EC0DF02C
:102CE2001C04D8A477EF16F079EF16F0B4EF16F0C3
:102CF2001450D8A47FEF16F081EF16F090EF16F083
:102D0200010E0124336E346A000E3422366A180E24
:102D1200356E4AEC0FF03350016EB4EF16F0140426
:102D2200D8A496EF16F098EF16F0A7EF16F0010E62
:102D32000224336E346A000E3422366A3C0E356E3B
:102D42004AEC0FF03350026EB4EF16F0010E03247A
:102D5200336E346A000E3422366A3C0E356E4AEC0B
:102D62000FF03350036E020E1C18D8A4BBEF16F0FE
:102D7200BDEF16F010EF17F01450D8A4C3EF16F001
:102D8200C5EF16F0DCEF16F00150D8B4CBEF16F019
:102D9200CDEF16F0D5EF16F0FF0E01243F6E406A1C
:102DA200FF0E4022D8EF16F0406A170E3F6E3FC06A
:102DB20001F010EF17F01404D8A4E2EF16F0E4EFDC
:102DC20016F0FBEF16F00250D8B4EAEF16F0ECEF73
:102DD20016F0F4EF16F0FF0E0224416E426AFF0E67
:102DE2004222F7EF16F0426A3B0E416E41C002F0FA
:102DF20010EF17F00350D8B401EF17F003EF17F0FC
:102E02000BEF17F0FF0E0324436E446AFF0E4422B9
:102E12000EEF17F0446A3B0E436E43C003F0030EFD
:102E22001C18D8A417EF17F019EF17F022EF17F0BC
:102E3200030E1424F66EF76A2F0EF7220800F5CF60
:102E420014F00B0E1C18D8A429EF17F02BEF17F073
:102E52007FEF17F001C033F0346A366A0A0E356E1E
:102E62004AEC0FF033C03DF034C03EF001C033F005
:102E7200346A366A0A0E356EA1EC0FF03338F00B65
:102E82003D103B6E020ECCEC0AF002C033F0346A05
:102E9200366A0A0E356E4AEC0FF033C03DF034C08C
:102EA2003EF002C033F0346A366A0A0E356EA1EC87
:102EB2000FF03338F00B3D103B6E010ECCEC0AF0F4
:102EC20003C033F0346A366A0A0E356E4AEC0FF0EC
:102ED20033C03DF034C03EF003C033F0346A366A8A
:102EE2000A0E356EA1EC0FF03338F00B3D103B6E3D
:102EF200000ECCEC0AF0136A146A1D6A1C6A1200F6
:102F020000020001532E4E4F2054494D45202020EF
:102F120020204556454E54202053504545440D0A25
:102F22000020202020204E4F204C4F475320464F58
:102F3200554E442020200054494D45202020204554
:102F420056454E542053500020202020202020207F
:102F52002020202020202020004C4F4720495320B1
:102F6200434C4541545245440050415353574F52EC
:102F7200442053435245454E00444F574E4C4F4117
:102F820044494E472E2E2E00454E54455220504164
:102F92005353574F52440053595354454D204C4FAD
:102FA200434B454400415454454D505453204C45E5
:102FB20046540057524F4E472050415353574400F6
:102FC2004C4F472044455441494C530052455345C8
:102FD2005420424F4152440044415348424F4152CF
:102FE20044005345542054494D45004E4F204C4F08
:0E2FF2004753000A0D002D3E000081EF0CF049
:020000040020DA
:08000000FFFFFFFFFFFFFFFF00
:020000040030CA
:0E000000FF071F1FFF8285FF0FC00FE00F409C
:00000001FF
